:020000040000FA
:100000000C9462000C948A000C948A000C948A0070
:100010000C948A000C948A000C948A000C948A0038
:100020000C94CE050C948A000C948A000C948A00DF
:100030000C948A000C948A000C948A000C948A0018
:100040000C9484050C948A000C9452050C942C0595
:100050000C948A000C948A000C948A000C948A00F8
:100060000C948A000C948A000000000024002700F1
:100070002A0000000000250028002B0000000008D6
:10008000000201000003040700000000000000005F
:1000900000000000230026002900040404040404D6
:1000A0000404020202020202030303030303010227
:1000B00004081020408001020408102001020408F6
:1000C0001020CE0611241FBECFEFD8E0DEBFCDBF7B
:1000D00023E0A8E0B2E001C01D92AE3DB207E1F717
:1000E00012E0A0E0B1E0E0E8F2E202C005900D927B
:1000F000A830B107D9F710E0C2E6D0E004C02197DC
:10010000FE010E943811C136D107C9F70E940807C5
:100110000C943E110C940000E091D103F091D203B5
:10012000238534852817390728F48091D00381600E
:100130008093D00308950F931F93CF93DF93E091A3
:10014000D103F091D20340911E02828510E048173E
:1001500008F064C0142F117000911D0201114FC0EE
:10016000842F90E0880F991FE80FF91F0384F4850E
:10017000E02D2CEE3FEF112311F024E130E0C0918F
:100180001B02D0911C022C0F3D1FC90163E470E0DB
:100190000E942411E617F70760F0C90168E270E0D9
:1001A0000E9424116F5F7F4F81E090E06E177F0700
:1001B00010F52C0F3D1FC90163E470E00E9424116B
:1001C000E617F70750F0C90168E270E00E942411B9
:1001D0006F5F7F4F6E177F0760F42C0F3D1FC901C3
:1001E00063E470E00E942411E617F707E8F41FEFBC
:1001F00015C082E090E090931A02809319020F5F7D
:1002000000931D028091190290911A020817190695
:1002100028F010921D024F5F40931E02812FDF9144
:10022000CF911F910F910895C90168E270E00E947B
:1002300024116F5F7F4F6E177F07C8F283E090E055
:10024000DACFAF92BF92CF92DF92EF92FF920F93ED
:100250001F93CF93DF936C017B018B01040F151F5C
:10026000EB015E01AE18BF08C017D10759F06991C4
:10027000D601ED91FC910190F081E02DC601099528
:10028000892B79F7C501DF91CF911F910F91FF90D5
:10029000EF90DF90CF90BF90AF900895FC01538D09
:1002A000448D252F30E0842F90E0821B930B541750
:1002B00010F0CF96089501970895FC01918D828DDD
:1002C000981761F0A28DAE0FBF2FB11D5D968C9176
:1002D000928D9F5F9F73928F90E008958FEF9FEFB5
:1002E0000895FC01918D828D981731F0828DE80F71
:1002F000F11D858D90E008958FEF9FEF0895FC012B
:10030000918D228D892F90E0805C9F4F821B9109F7
:100310008F73992708958FE192E00E947F0121E079
:10032000892B09F420E0822F089580E090E0892B4A
:1003300029F00E948B0181110C9400000895FC01AA
:10034000A48DA80FB92FB11DA35ABF4F2C91848D36
:1003500090E001968F739927848FA689B7892C9393
:10036000A089B1898C91837080648C93938D848DE6
:10037000981306C00288F389E02D80818F7D8083E9
:100380000895EF92FF920F931F93CF93DF93EC01A9
:1003900081E0888F9B8D8C8D98131AC0E889F9892C
:1003A000808185FF15C09FB7F894EE89FF8960832F
:1003B000E889F98980818370806480839FBF81E0B0
:1003C00090E0DF91CF911F910F91FF90EF900895F2
:1003D000F62E0B8D10E00F5F1F4F0F731127E02ECD
:1003E0008C8D8E110CC00FB607FCFACFE889F98905
:1003F000808185FFF5CFCE010E949F01F1CFEB8D6B
:10040000EC0FFD2FF11DE35AFF4FF0829FB7F894D8
:100410000B8FEA89FB8980818062CFCFCF93DF93F6
:10042000EC01888D8823B9F0AA89BB89E889F9890C
:100430008C9185FD03C0808186FD0DC00FB607FC41
:10044000F7CF8C9185FFF2CF808185FFEDCFCE0174
:100450000E949F01E9CFDF91CF91089590E0FC01C8
:10046000E458FF4F2491FC01E255FF4F3491FC0109
:10047000E656FF4FE491EE23C9F0222339F02330F2
:1004800001F1A8F4213019F1223029F1F0E0EE0F4A
:10049000FF1FEE58FF4FA591B4918FB7F894EC91E0
:1004A000611126C030953E233C938FBF08952730BD
:1004B000A9F02830C9F0243049F7809180008F7D61
:1004C00003C0809180008F7780938000DFCF84B558
:1004D0008F7784BDDBCF84B58F7DFBCF8091B0005B
:1004E0008F778093B000D2CF8091B0008F7DF9CF0D
:1004F0003E2BDACFCF93DF9390E0FC01E255FF4F24
:10050000249186569F4FFC0184918823D1F090E07E
:10051000880F991FFC01E859FF4FA591B491FC0188
:10052000EE58FF4FC591D49161110EC09FB7F8945A
:100530008C91E22FE0958E238C932881E223E8832F
:100540009FBFDF91CF9108958FB7F894EC91E22B84
:10055000EC938FBFF6CFACEBB2E011968C93119772
:10056000282F30E0F901E255FF4FE4911496EC9307
:100570001497F901E656FF4FE491F0E0EE0FFF1FEC
:10058000E057FF4F2591349113963C932E93129789
:1005900060E00C947A023FB7F89480910D0290913C
:1005A0000E02A0910F02B091100226B5A89B05C0C3
:1005B0002F3F19F00196A11DB11D3FBFBA2FA92FE2
:1005C000982F8827BC01CD01620F711D811D911DDF
:1005D00042E0660F771F881F991F4A95D1F708954B
:1005E0002FB7F8946091090270910A0280910B0272
:1005F00090910C022FBF08958F929F92AF92BF925D
:10060000CF92DF92EF92FF924B015C010E94CB02EE
:100610006B017C0124E0C21AD108E108F1080E94B4
:10062000CB026C197D098E099F09681579058A0529
:100630009B05A8F3FF90EF90DF90CF90BF90AF9015
:100640009F908F900895FC019B0124513109C901AD
:1006500063E470E00E942411E617F70758F0C9011F
:1006600068E270E00E9424116F5F7F4F81E06E1797
:100670007F0708F480E008952F923F924F925F9297
:100680006F927F928F929F92AF92BF92CF92DF92A2
:10069000EF92FF920F931F93CF93DF93CDB7DEB707
:1006A0002A970FB6F894DEBF0FBECDBF282E6987FC
:1006B0005A013A8329833E2C9A012C5E3F4FC9018F
:1006C00063E470E00E94241178876F83C90168E2B7
:1006D00070E00E9424119B012F5F3F4F3E832D83CA
:1006E0009985892F90E0880F991F0B969A878987A3
:1006F0008091D1039091D203E985FA85E80FF91F23
:10070000FA87E987412C512C32014394C12CD12C1A
:100710007601222009F442C029813A81E985FA85CF
:10072000A216B306D1F40280F381E02DFC83EB83A3
:10073000311017C0B8018B819C810E942303811165
:1007400023C0440C551C661C771C2A9429853A85C5
:100750002C5F3F4F3A872987DCCF80809180332000
:1007600049F0CC0CDD1CEE1CFF1C29813A81A2163D
:10077000B30601F38F8198858816990610F3ED81F1
:10078000FE81E815F905E8F2332019F06894C0F805
:10079000D8CFC428D528E628F728D3CFC092B603EF
:1007A000D092B703E092B803F092B90381E02A96A1
:1007B0000FB6F894DEBF0FBECDBFDF91CF911F9172
:1007C0000F91FF90EF90DF90CF90BF90AF909F90F0
:1007D0008F907F906F905F904F903F902F900895F3
:1007E000EF920F931F93FC01862F642FEE24E39466
:1007F0009785911101C0E12C0185128523853485EF
:10080000478150850E943C031F910F91EF900895FE
:100810000F931F93CF93DF93EC01E091D103F091FD
:10082000D203058516852B813C812C5E3F4FC90183
:1008300063E470E00E94241106171707A0F0C901B5
:1008400068E270E00E9424116F5F7F4F60177107AC
:1008500050F06D817E8187859089DF91CF911F91C6
:100860000F910C94230380E0DF91CF911F910F91A2
:100870000895E9EAF3E08AE190E09283818385E0DC
:1008800090E09483838361E080810C947A0280916C
:10089000A703882319F060E00C942E022D98089588
:1008A000882349F08091A703882319F061E00C9414
:1008B0002E022D9A08950C9447044F925F926F92E6
:1008C0007F928F929F92AF92BF92CF92DF92EF92E0
:1008D000FF92CF93DF93CDB7DEB72D970FB6F89485
:1008E000DEBF0FBECDBF7C010E94CB0269837A833D
:1008F0008B839C834B015C011D86B0E0A0E09701D7
:10090000AD0125523109410951092D833E834F83A1
:1009100058879701AD0127503109410951092987AD
:100920003A874B875C87F89461E08091A9030E9425
:100930002E028091AC039091AD038230910538F086
:10094000880F991F880F991F05970197F1F760E0AD
:100950008091A9030E942E0278943D85311107C031
:100960008091A803823019F481E00E9450048091A4
:10097000AA039091AB03880E991EA11CB11CF89498
:100980000E94CB022B013C016B0149815A81C41AA0
:10099000D50AF12CE12C8D819E81AF81B885C816D6
:1009A000D906EA06FB0634F08091A803823011F4E0
:1009B0000E94470429853A854B855C85C216D3067B
:1009C000E406F506B4F078942D960FB6F894DEBFE1
:1009D0000FBECDBFDF91CF91FF90EF90DF90CF9012
:1009E000BF90AF909F908F907F906F905F904F904F
:1009F000089531E03D87481459046A047B0408F4E3
:100A0000BFCF91CF0E94390480E891E10E945D043C
:100A100060E871E180E090E00E94FC0280E392E0F7
:100A20000E945D0460E372E080E090E00E94FC02BE
:100A300080E392E00C945D040E94390480E093E22C
:100A40000E945D0460EC78E080E090E00E94FC028F
:100A500080E392E00C945D041F920F920FB60F9208
:100A600011242F933F934F935F936F937F938F93B3
:100A70009F93AF93BF93EF93FF938FE192E00E9418
:100A80009F01FF91EF91BF91AF919F918F917F91C6
:100A90006F915F914F913F912F910F900FBE0F90EB
:100AA0001F9018951F920F920FB60F9211242F933B
:100AB0008F939F93EF93FF93E0912F02F091300279
:100AC0008081E0913502F091360282FD1BC0908159
:100AD000809138028F5F8F7320913902821741F025
:100AE000E0913802F0E0E15EFD4F958F809338028F
:100AF000FF91EF919F918F912F910F900FBE0F90CB
:100B00001F9018958081F4CF1F920F920FB60F920D
:100B100011242F933F938F939F93AF93BF93809113
:100B2000090290910A02A0910B02B0910C0230913F
:100B3000080223E0230F2D3758F50196A11DB11DA2
:100B4000209308028093090290930A02A0930B025B
:100B5000B0930C0280910D0290910E02A0910F02B1
:100B6000B09110020196A11DB11D80930D029093CA
:100B70000E02A0930F02B0931002BF91AF919F910C
:100B80008F913F912F910F900FBE0F901F9018954E
:100B900026E8230F0296A11DB11DD2CF1F920F92FE
:100BA0000FB60F9211242F933F934F935F936F9340
:100BB0007F938F939F93AF93BF93CF93EF93FF93C5
:100BC000E091BE02F091BF02C0818091C002C823B3
:100BD0008091C1029091C202019649F08091C102B8
:100BE0009091C20201969093C2028093C1028091BB
:100BF000BC0281111DC0C1116EC08091C1029091D3
:100C0000C2028536910578F01092C5028091C1022A
:100C10009091C2029093C8028093C70281E08093B2
:100C2000C6028093BC021092C2021092C10253C04D
:100C30008091BC028130A9F4CC2309F44CC0E0912E
:100C4000C6028E0F8093C6028091C1029091C202AB
:100C5000F0E0EE0FFF1FE454FD4F9487838782E09E
:100C6000E0CF8091BC02823009F04FC0C11122C098
:100C7000E091C60281E0E03768F08093C50283E02E
:100C80008093BC02E091C302F091C402309759F204
:100C90000995C9CF8E0F8093C6028091C1029091B1
:100CA000C202F0E0EE0FFF1FE454FD4F94878387EC
:100CB00081E0B7CF8091C1029091C2028536910543
:100CC00050F083E08093BC02E091C302F091C40233
:100CD000309709F009958091A803813021F4C11162
:100CE00080E00E945004FF91EF91CF91BF91AF91AE
:100CF0009F918F917F916F915F914F913F912F9134
:100D00000F900FBE0F901F9018958091BC028330FA
:100D100011F7C111E0CF87CFEF92FF920F931F938E
:100D2000CF93DF93EC01F62F8A01790190E080E008
:100D300030E0E0E0DE01AE0FB11D2C91222341F046
:100D4000320F2E9F800D911D11241C92FE1315C091
:100D5000332399F0532F5695850F911D632F70E023
:100D60000E942411DE01A60FB11D3C93D8013C91D5
:100D700031110EC06C9390E080E0EF5FFE17D0F66B
:100D800081E0DF91CF911F910F91FF90EF90089537
:100D9000D7013C91332371F380E0F3CFEFE1F2E030
:100DA0001382128288EE93E0A0E0B0E08483958302
:100DB000A683B78389EF91E09183808385EC90E0EF
:100DC0009587848784EC90E09787868780EC90E015
:100DD000918B808B81EC90E0938B828B82EC90E006
:100DE000958B848B86EC90E0978B868B118E128E80
:100DF000138E148E8CEB92E09093D2038093D103E8
:100E000080E00E94AB021092A7031092A9030895FC
:100E1000CF93DF93CDB7DEB7E9970FB6F894DEBF77
:100E20000FBECDBF789484B5826084BD84B58160E7
:100E300084BD85B5826085BD85B5816085BD8091A5
:100E40006E00816080936E0010928100809181001D
:100E50008260809381008091810081608093810015
:100E6000809180008160809380008091B1008460D7
:100E70008093B1008091B00081608093B000809138
:100E80007A00846080937A0080917A0082608093F7
:100E90007A0080917A00816080937A0080917A0054
:100EA000806880937A001092C100E0912F02F09147
:100EB000300212E01083E0912B02F0912C0210829C
:100EC000E0912D02F0912E028FEC80831092370278
:100ED000E0913302F091340286E08083E0913102A8
:100EE000F0913202808180618083E0913102F09143
:100EF0003202808188608083E0913102F091320279
:100F0000808180688083E0913102F091320280819B
:100F10008F7D808382E00E94AB021092A7038091B4
:100F2000A80381608093A803259A1093B0001093C2
:100F3000B10084E68093B3008093B4001092B200B5
:100F40008091BC02833011F41092BC0284E0809343
:100F5000700061E083E00E947A0261E084E00E9418
:100F60007A0261E085E00E947A02109216021092E5
:100F70001502109218021092170261E083E00E949D
:100F80002E029E012F5F3F4F690130E2832E912C8C
:100F90008091BC02833009F021C28091C502882370
:100FA00009F458C080E48093D0031092AF031092EC
:100FB000AE031092B3031092B2031092B1031092D9
:100FC000B0031092B6031092B7031092B8031092B8
:100FD000B9031092CF031092CE038091D00386FD07
:100FE000F7C1E091D103F091D2032285822F8F7B4C
:100FF000843009F0B9C085859685865891098C356D
:10100000910508F0B1C087859089243009F049C066
:101010008197489708F0A8C0818992890897089716
:1010200008F0A2C081E08093D0038091D503909115
:10103000D6039093B1038093B0038091D90390912C
:10104000DA039093B3038093B2038091D30390911A
:10105000D40362C01092D0038091AE039091AF038D
:101060009093D4038093D3038091B2039091B30300
:10107000B0E0A0E08093D9039093DA03A093DB0360
:10108000B093DC038091B0039091B103B0E0A0E095
:101090008093D5039093D603A093D703B093D8033E
:1010A00084CF825491098F9708F05EC043E060E2DC
:1010B0008CED91E00E94F003882309F455C08091E3
:1010C000B6039091B7034091B8035091B903242F10
:1010D00030E03093B3032093B2039C012E3E67E8C7
:1010E0003607F9F483E090E09093AF038093AE036A
:1010F000852F90E09093B1038093B0039092CF033B
:101100008092CE038AE795E00E948C008091D00304
:1011100080FF33C189E090E09093AF038093AE03EA
:101120002CC19095891310C090E09093B1038093E7
:10113000B003852F809548130CC088E090E0909311
:10114000AF038093AE03DACF3093B1032093B003A3
:10115000F0CF8AE090E09093AF038093AE0340938A
:10116000B2035093B303CACFE091D103F091D203FD
:101170008285843609F08FC088EC91E00E940804D3
:10118000882309F488C043E060E188EC91E00E9484
:10119000F003882309F47FC0B090B6030B2D1091A3
:1011A000B7039BE0E92EF12C023080E21807F9F03A
:1011B0008EE0E82EF12C0A3A9AE51907C1F0BDE05D
:1011C000EB2EF12C0435E2E31E0789F0AFE0EA2EA6
:1011D000F12C0330F1E01F0751F020E1E22EF12C59
:1011E00003322BEC120719F0FCE0EF2EF12C43E256
:1011F00060E288EC91E00E94F003882309F44BC080
:10120000B1264091B6035091B7036091B803709135
:10121000B903CA01E4E096958795EA95E1F79093C2
:10122000B1038093B003862F90E09093B303809333
:10123000B203942F962795278B2D82958F708B253F
:101240008F70242F2F70821719F084E08093D003C1
:101250003CE0E316F10449F48091D003806180936F
:10126000D0031093B5030093B403971729F080912E
:10127000D00384608093D00380E390E09093CF0309
:101280008093CE03F092AF03E092AE038AE397E03F
:101290000E948C0072C0E091D103F091D20382854C
:1012A000803209F0D0C041E06FE084EB91E00E9411
:1012B000F003882309F4C7C0E091D103F091D20371
:1012C000DF01A75BBF4F8D919C910497059708F0B4
:1012D000BAC08091B6039091B703A091B803B091C2
:1012E000B9039C012F7133273093B1032093B003CE
:1012F00055E0B695A795979587955A95D1F7492FBB
:1013000043709C0133273093B3032093B2032385AA
:1013100034852536344008F08EC02091DD032F5FE0
:101320002093DD03223018F021E02093D00390FFBA
:1013300014C02091D003322F32603093D00330910B
:10134000D9035091DA038095831719F02660209312
:10135000D0033093B2035093B3034150423008F0AE
:101360006FC086E190E09093AF038093AE038FE06F
:1013700090E09093CF038093CE038091B603909139
:10138000B703A091B803B091B9038115FFEE9F0791
:10139000F5E0AF07FAEFBF0709F450C608F01BC627
:1013A00081153FEE93073FE0A30730EFB30709F441
:1013B0003EC681155FEE95075BE0A50754EFB507C4
:1013C00009F42DC681159F4EA441BB4E09F43DC6BC
:1013D0008091BC02833011F41092BC028091F40120
:1013E000882309F4F7C6809117029091180200979C
:1013F00009F0E0C680911502909116022091F30148
:10140000222309F4CEC61092F3018130910509F42C
:101410005CC608F421C6029709F48EC680E090E00D
:10142000892B09F4B5CD0E948B01882309F4ADCD39
:101430000E940000AACD1092DD03423009F491CF42
:1014400084E090E090CF80EA91E00E940804882335
:1014500009F44EC0E091D103F091D20382858A3124
:1014600029F08A3219F0803209F042C090E0BC01C4
:101470006150710977FDBC017595679543E080EA7D
:1014800091E00E94F003882399F18091B603909136
:10149000B703A091B803B091B9039C012F7733270C
:1014A0003093B3032093B20337E0B695A795979591
:1014B00087953A95D1F79093B1038093B003E0916B
:1014C000D103F091D203228530E0C901019797FD45
:1014D000C901959587959093CF038093CE0387E1BB
:1014E00090E09093AF038093AE0380EE91E0D0CE76
:1014F00081E080931E0289E793E090931C02809321
:101500001B0210921D020E949B00813009F063C0F3
:10151000412C512C320110E0E091D103F091D20323
:10152000928580911E028917E0F40E949B00082F8B
:101530000E949B0001110BC0813009F04CC0440C8B
:10154000551C661C771C689440F81F5FE5CF01307E
:1015500009F041C081113FC0440C551C661C771C2A
:10156000F4CF812F90E09093CF038093CE034092ED
:10157000B6035092B7036092B8037092B903842DFA
:101580008F7390E09093B3038093B203920116E0BF
:10159000369527951A95E1F72F7133273093B103CC
:1015A0002093B003920122273071232B31F4805C09
:1015B0009F4F9093B3038093B20380E853FC88E875
:1015C0008093D00381E190E09093AF038093AE03CA
:1015D0008FEC99E05DCEE091D103F091D203858547
:1015E000968588974D9708F046C0878590890C9717
:1015F0000B9708F040C083E080931E028CEB91E0D3
:1016000090931C0280931B0210921D020E949B006B
:10161000813089F50E949B0081112DC0412C512CF5
:10162000320110E0E091D103F091D20392858091D4
:101630001E02891708F082C00E949B00F82E13300A
:10164000B1F00E949B00082F133021F40E949B00F0
:10165000081311C091E0F91267C001110CC0440CCD
:10166000551C661C771C689440F81F5FDBCF0E94F6
:101670009B00F81631F3E091D103F091D20322855B
:101680002C3311F0243099F48585968586389105A0
:1016900070F0833E910508F497C08E58910968EB6D
:1016A0007BE007E010E08236910508F491C0E091FC
:1016B000D103F091D2038285823209F4EEC08432E4
:1016C00009F015C184E191E00E940804882309F41F
:1016D0000EC143E060E184E191E00E94F0038823C1
:1016E00009F405C18091B6039091B703A091B803A6
:1016F000B091B903492F5A2F6B2F77275093B3031B
:101700004093B20399279093B1038093B00380E193
:1017100090E09093CF038093CE03E5E0F0E0F09368
:10172000AF03E093AE0329CEF110A5CF013009F04D
:10173000A2CF440C551C661C771C97CF812F90E0DC
:101740009093CF038093CE034092B6035092B70399
:101750006092B8037092B903242D30E0852D1432C5
:1017600000F580E88093D0033093B3032093B20355
:10177000852D90E09093B1038093B00360FE03C089
:1017800088E88093D003153128F08091D0038061E0
:101790008093D00383E79AE00E948C0082E190E07E
:1017A000BBCC90E89093D00357FE03C098E8909389
:1017B000D0033093B3032093B2038F7790E09093DC
:1017C000B1038093B003E6CF68E670E106E010E075
:1017D00087859089243061F44D97469708F067CF4C
:1017E000818992890797089708F061CF81E81BCC1F
:1017F0000E942303882309F45ACF43E06CE180E080
:1018000091E00E94F003882309F451CF80E880938F
:10181000D0038091B6039091B703A091B803B09123
:10182000B9032C013D01E4E0769467945794479402
:10183000EA95D1F7A2015092B3034092B2032C0172
:101840003D01F4E17694679457944794FA95D1F763
:101850005092B1034092B00324E030E060E0742F76
:101860007F70670F74E0569547957A95E1F72150A0
:101870003109A9F786278F709927AA27BB27892BBB
:101880008A2B8B2B19F084E88093D0031093AF033D
:101890000093AE038CE190E06CCD838594858C3E03
:1018A0009C4508F06ACD858596850897079708F0CE
:1018B00064CDE35BFF4F808191810897079708F023
:1018C0005CCD81E08093D0038091D5039091D603C5
:1018D0009093B1038093B0038091D9039091DA0380
:1018E0009093B3038093B20385E090E015CCE09130
:1018F000D103F091D2031285812F8F7D843419F0AA
:10190000163009F07CC088E291E00E940804882328
:1019100009F475C01630B1F481E08093D003809152
:10192000D5039091D6039093B1038093B003809137
:10193000D9039091DA039093B3038093B20385E1C6
:1019400090E0EACB43E060E288E291E00E94F0039D
:10195000882309F454C01091B8030091B903909101
:10196000B6038091B7039093B0038093B103E091E5
:10197000D103F091D2038285843651F543E460E1CE
:1019800088E291E00E94F0038823C9F18091B603B8
:101990009091B7030095101731F09095981719F0B2
:1019A00094E09093D003982F812F9093B30380936A
:1019B000B20380E390E09093CF038093CE0384E161
:1019C00090E09093AF038093AE038FE595E060CCF9
:1019D000802F809518130DC0812F90E09093B30352
:1019E0008093B2039092CF038092CE0383E190E084
:1019F000E8CFC8019093B2038093B303F3CFE09193
:101A0000D103F091D2038285843279F58CE391E0A1
:101A10000E940804882349F143E060E18CE391E0EF
:101A20000E94F003882309F11091B6038091B70357
:101A30008095181719F084E08093D0038DE692E02A
:101A40000E948C00812F90E09093B3038093B203A7
:101A50001092B1031092B00380E190E09093CF0315
:101A60008093CE038DE190E057CBE091D103F091CC
:101A7000D20382858434C1F480E591E00E94080499
:101A8000882391F043E060E280E591E00E94F0035A
:101A9000882351F080E88093D0039092CF03809206
:101AA000CE038CE190E038CB84E691E00E940804FC
:101AB000E091D103F091D2039285882309F455C0B7
:101AC000943209F052C043E060E184E691E00E9464
:101AD000F003882309F449C0E091D103F091D203C7
:101AE000DF01AF5ABF4F8D919C9102970497E8F5A3
:101AF00080E88093D0039091B6034091B703292FDB
:101B0000342F542F52955F704F70A4E0369527956F
:101B1000AA95E1F72F709F708FE085278427822791
:101B2000981719F084E88093D00383859485883FC3
:101B3000914128F48091D00382608093D003509328
:101B4000B0031092B10330E1439FC0011124822BF6
:101B50009093B3038093B20380E190E09093CF031E
:101B60008093CE038AE190E0D7CA88E791E00E9493
:101B70000804E091D103F091D2039285882381F18A
:101B8000943271F543E060E188E791E00E94F00350
:101B9000882331F1E091D103F091D203EF5AFF4F46
:101BA0008081918108970797D8F48091B60390912E
:101BB000B70398279F3FA1F490E09093B3038093DD
:101BC000B20380E190E09093CF038093CE0389E14C
:101BD00090E09093AF038093AE0388ED94E058CBF0
:101BE000E091D103F091D2038285803709F059C08A
:101BF00041E068E08CE891E00E94F003882309F45A
:101C000050C08091B6039091B703A091B803B091F2
:101C1000B903892B8A2B8B2B09F043C041E16FE17B
:101C20008CE891E00E94F0038823D9F14090B6033C
:101C30005090B7036090B8037090B9034FE461E12E
:101C40008CE891E00E94F003882359F19091B7034A
:101C50008091B8038927982789279093B3038093AD
:101C6000B2034092B6035092B7036092B8037092E9
:101C7000B9035092B1034092B0037092B5036092E1
:101C8000B4038BE190E09093AF038093AE0388E3BD
:101C900090E09093CF038093CE0380E88093D003AD
:101CA0006CCBA091D103B091D2031A968C911A9764
:101CB000843108F42AC182E3F60111928A95E9F78A
:101CC0001A962C911A972250330B60E043E0842F30
:101CD00090E082179307BCF4880F991FFD01E80F6D
:101CE000F91F838594858233910508F00EC1F601B2
:101CF000E80FF91F50815F5F50836817190608F4D9
:101D0000682F4E5FE4CF1EAA1DAA9E012B5C3F4F99
:101D1000AE014A5C5F4FC6010E948C06882309F41D
:101D2000F4C082E3F60111928A95E9F7A091D103FC
:101D3000B091D2031A962C911A972250330B60E07F
:101D400044E0842F90E082179307BCF4880F991F1A
:101D5000FD01E80FF91F838594858233910508F012
:101D6000D4C0F601E80FF91F50815F5F50836817F8
:101D7000190608F4682F4E5FE4CF1CAA1BAA9E0127
:101D80002D5C3F4FAE014C5C5F4FC6010E948C063C
:101D9000882309F4BAC0E091D103F091D20382857F
:101DA00086958150990BABA84DA89C012150310913
:101DB000AA2019F0411001C0C9019093CF0380936C
:101DC000CE039C012150310995E0369527959A95CF
:101DD000E1F729AF411003C0AA2009F496C02CA84E
:101DE00092E3299E100111246EA8699E30011124EE
:101DF000499E20011124A99E5001112488AFF3E0CF
:101E0000FFABF12C88AD813208F080E29DA99923C7
:101E100009F467C021E030E03093AF032093AE03B4
:101E2000E12C81019301A2016FA90E943C03882348
:101E300009F46BC024E0F29EF0011124EA53FC4F38
:101E40008091B6039091B703A091B803B091B90304
:101E500080839183A283B3833FA9305C3FABF3942B
:101E600058AD505258AF69AD6F1560F680ED97E0F0
:101E70000E948C00E091D103F091D20345855685F4
:101E800082E3849F9001859F300D11243093BB0322
:101E90002093BA0347855089849F9001859F300D18
:101EA00011243093BD032093BC037092C30360924E
:101EB000C2033092C5032092C40341145104E1F0DF
:101EC0005092BF034092BE033092C1032092C003E0
:101ED000A114B10409F451CAB092C503A092C4037D
:101EE0004CCAE2E0F0E0F093AF03E093AE03E12CE4
:101EF00085019301A30198CF7092BF036092BE0346
:101F0000B092C103A092C00338CAE090D103F09010
:101F1000D203F7010285063008F42FCABB24B3941C
:101F200025EC3DE94CE151E810E08AE0A82E8B2D2C
:101F300090E0BC016E5F7F4F60177107DCF5660FA4
:101F4000771FF701E60FF71F63857485880F991FC8
:101F5000F701E80FF91F83859485A69ED001A79EFF
:101F6000B00D1124FC01EE0FFF1FEE0FFF1FEE0F4F
:101F7000FF1FAE17BF07D0F0A89EF001A99EF00D7D
:101F80001124CB0163E0880F991F6A95E1F7E817E8
:101F9000F90770F4E2E063E971E080E091E00E940B
:101FA000FA109B01AC012E27B394C1CFE0E0F3CF30
:101FB000E1E0F1CF2093B6033093B7034093B80329
:101FC0005093B9039092CF038092CE031092AF0347
:101FD0001092AE03D2C98115EFEE9E07E3E0AE0783
:101FE000ECEFBE07A9F08115FFEE9F07F2E0AF0707
:101FF000FDEFBF0789F081159F4EA440BB4F09F04C
:10200000E7C98091F00191E089278093F001E0C950
:1020100081E08093F401DCC91092F401D9C91092D7
:1020200018021092170281E08093F301D1C981E078
:1020300090E09093180280931702CAC98091F10131
:1020400091E089278093F101C3C98091F20191E069
:1020500089278093F201BCC961E083E00E942E02CF
:1020600060E085E00E942E0260E084E00E942E0283
:102070000E94F002009111021091120220911302AD
:1020800030911402601B710B820B930B603177420D
:102090008105910508F4C2C921E030E030931602B1
:1020A000209315020E94F0026093110270931202B5
:1020B000809313029093140260E083E00E942E024A
:1020C00061E085E00E942E02A9C960E083E00E94E1
:1020D0002E0261E085E00E942E0260E084E00E9412
:1020E0002E020E94F0020091110210911202209122
:1020F000130230911402601B710B820B930B603141
:1021000077428105910508F489C982E090E09093B7
:102110001602809315020E94F002609311027093E0
:102120001202809313029093140260E085E00E94F3
:102130002E0261E084E0C6CF60E083E00E942E02C0
:1021400060E085E00E942E0261E084E00E942E02A1
:102150000E94F002009111021091120220911302CC
:1021600030911402601B710B820B930B6838734122
:102170008105910508F452C91092160210921502B9
:102180000E94F00260931102709312028093130276
:102190009093140260E084E00E942E0261E083E0EC
:1021A00091CF8130910509F49CCF08F461CF02975B
:1021B00079F234C9019709F031C96091F20184E0E4
:1021C0000E942E026091F10185E00E942E02609132
:1021D000F001E5CF60E083E00E942E0260E084E041
:1021E0000E942E0260E085E00E942E0281E0809332
:1021F000F30114C9DB018F939F930E940A11BF91D1
:10220000AF91A29F800D911DA39F900DB29F900D45
:10221000112408950E941511A59F900DB49F900D53
:10222000A49F800D911D11240895A29FB001B39F1A
:10223000C001A39F700D811D1124911DB29F700DCF
:10224000811D1124911D0895AA1BBB1B51E107C0DC
:10225000AA1FBB1FA617B70710F0A61BB70B881F36
:10226000991F5A95A9F780959095BC01CD010895C5
:10227000EE0FFF1F0590F491E02D0994F894FFCF25
:1022800006002628236810F4012C06F4012602809B
:102290006E001C05050026E02070100E022A060EB6
:1022A000020E020041000000130026801180113050
:1022B00002900630023002006E0002051D00263832
:1022C000081C040E022A060E020E02003200000054
:1022D0001C0026220B220BEE026608EE02EE0280A4
:1022E0006E0000001A00269E0002049E0029029E35
:1022F000000701006E000000190026F603BC050867
:1023000002BC050802D401004B0000001B00261F80
:10231000015D033E023E021F015D03806E0000006E
:1023200017002860095802B00458025802580200E9
:102330002D00000004002604010C0304011C070406
:10234000010C03006E0000000C0025800DC006B0DB
:10235000011005B001B00100820000000800260055
:102360002380113002900630023002006E001C05FE
:10237000010101010100000000C10121014E010E17
:08238000027F015D0171010003
:107E0000112484B714BE81FFF0D085E080938100F7
:107E100082E08093C00088E18093C10086E0809377
:107E2000C20080E18093C4008EE0C9D0259A86E02C
:107E300020E33CEF91E0309385002093840096BBD3
:107E4000B09BFECF1D9AA8958150A9F7CC24DD24C4
:107E500088248394B5E0AB2EA1E19A2EF3E0BF2EE7
:107E6000A2D0813461F49FD0082FAFD0023811F036
:107E7000013811F484E001C083E08DD089C08234E0
:107E800011F484E103C0853419F485E0A6D080C0E4
:107E9000853579F488D0E82EFF2485D0082F10E0AE
:107EA000102F00270E291F29000F111F8ED06801E7
:107EB0006FC0863521F484E090D080E0DECF843638
:107EC00009F040C070D06FD0082F6DD080E0C81688
:107ED00080E7D80618F4F601B7BEE895C0E0D1E017
:107EE00062D089930C17E1F7F0E0CF16F0E7DF06D8
:107EF00018F0F601B7BEE89568D007B600FCFDCFD4
:107F0000A601A0E0B1E02C9130E011968C91119780
:107F100090E0982F8827822B932B1296FA010C0160
:107F200087BEE89511244E5F5F4FF1E0A038BF0790
:107F300051F7F601A7BEE89507B600FCFDCF97BE46
:107F4000E89526C08437B1F42ED02DD0F82E2BD052
:107F50003CD0F601EF2C8F010F5F1F4F84911BD097
:107F6000EA94F801C1F70894C11CD11CFA94CF0C13
:107F7000D11C0EC0853739F428D08EE10CD085E9AC
:107F80000AD08FE07ACF813511F488E018D01DD067
:107F900080E101D065CF982F8091C00085FFFCCF94
:107FA0009093C60008958091C00087FFFCCF809118
:107FB000C00084FD01C0A8958091C6000895E0E648
:107FC000F0E098E1908380830895EDDF803219F02E
:107FD00088E0F5DFFFCF84E1DECF1F93182FE3DFCA
:107FE0001150E9F7F2DF1F91089580E0E8DFEE27F6
:047FF000FF270994CA
:027FFE00040479
:00000001FF
